:100000000C9446000C9465000C9465000C946500FB
:100010000C9465000C9465000C9465000C946500CC
:100020000C9465000C9465000C9465000C946500BC
:100030000C9465000C9465000C9465000C946500AC
:100040000C9465000C9465000C9465000C9465009C
:100050000C9465000C9465000C9465000C9465008C
:100060000C9465000C9465000C9465000C9465007C
:100070000C9465000C9465000C9465000C9465006C
:100080000C9465000C9465000C94650011241FBE4F
:10009000CFEFD0E1DEBFCDBF11E0A0E0B1E0EEE0F8
:1000A000F2E000E00BBF02C007900D92AE30B10746
:1000B000D9F711E0AEE0B1E001C01D92AA31B1075D
:1000C000E1F70E9467000C9405010C9400008FEF8B
:1000D00081BB8FE382B9109211011092100131C0DF
:1000E00010920F0110920E011CC0FC01E65FFE4F42
:1000F000208123B9FC01EE0FFF1FEE5EFE4F019041
:10010000F081E02DE050FF4F208122BBEFE0F7E2CD
:100110003197F1F700C00000019690930F01809392
:100120000E0180910E0190910F0184309105ECF247
:10013000809110019091110101969093110180938B
:10014000100180911001909111018A30910544F2C3
:100150008091120190911301019690931301809365
:1001600012018A30910571F410921301109212015C
:10017000809114019091150101969093150180933F
:100180001401A9CF80911401909115018A30910535
:1001900071F4109215011092140180911601909142
:1001A00017010196909317018093160194CF8091C7
:1001B0001601909117018A30910571F41092170180
:1001C0001092160180911801909119010196909357
:1001D0001901809318017FCF809118019091190126
:1001E0008A30910509F077CF109213011092120115
:1001F000109215011092140110921701109216011D
:0E020000109219011092180166CFF894FFCFEA
:0E020E00C0F9A4B0999282F880900102040811
:00000001FF
