:100000000C9446000C9465000C9465000C946500FB
:100010000C9465000C9465000C9465000C946500CC
:100020000C9465000C9465000C9465000C946500BC
:100030000C9465000C9465000C9465000C946500AC
:100040000C9465000C9465000C9465000C9465009C
:100050000C9465000C9465000C9465000C9465008C
:100060000C9465000C9465000C9465000C9465007C
:100070000C9465000C9465000C9465000C9465006C
:100080000C9465000C9465000C94650011241FBE4F
:10009000CFEFD0E1DEBFCDBF11E0A0E0B1E0E6E3FD
:1000A000F2E000E00BBF02C007900D92AE30B10746
:1000B000D9F711E0AEE0B1E001C01D92A831B1075F
:1000C000E1F70E9467000C9419010C9400008FEF77
:1000D00081BB8FE382B910920F0110920E0147C0CD
:1000E00040910A0143B980509F4FFC01808182BB3F
:1000F0008FE097E20197F1F700C0000080910B01BB
:1001000083B9E0911201F0911301E050FF4F80811B
:1001100082BBEFE0F7E23197F1F700C00000809179
:100120000C0183B9E0911401F0911501E050FF4FEB
:10013000808182BB8FE097E20197F1F700C0000059
:1001400080910D0183B9E0911601F0911701E05003
:10015000FF4F808182BBEFE0F7E23197F1F700C0FB
:1001600000002F5F3F4F30930F0120930E0120912D
:100170000E0130910F0180911001909111012436F0
:1001800031050CF4ADCF01969093110180931001CD
:100190008A30910569F4109211011092100180913A
:1001A0001201909113010196909313018093120113
:1001B00080911201909113018630910569F410929B
:1001C0001301109212018091140190911501019672
:1001D0009093150180931401809114019091150161
:1001E0008A30910569F410921501109214018091E2
:1001F00016019091170101969093170180931601B3
:1002000080911601909117018630910509F063CF16
:10021000109211011092100110921301109212010C
:1002200010921501109214011092170110921601EC
:0602300052CFF894FFCF4D
:0E023600C0F9A4B0999282F8809001020408E9
:00000001FF
