:100000000C9446000C9465000C9465000C946500FB
:100010000C9465000C9465000C9465000C946500CC
:100020000C9465000C9465000C9465000C946500BC
:100030000C9465000C9465000C9465000C946500AC
:100040000C9465000C9465000C9465000C9465009C
:100050000C9465000C9465000C9465000C9465008C
:100060000C9465000C9465000C9465000C9465007C
:100070000C9465000C9465000C9465000C9465006C
:100080000C9465000C9465000C94650011241FBE4F
:10009000CFEFD0E1DEBFCDBF11E0A0E0B1E0EEEDEB
:1000A000F2E000E00BBF02C007900D92AE30B10746
:1000B000D9F711E0AEE0B1E001C01D92AE31B10759
:1000C000E1F70E94DD000C946D010C940000EF92AA
:1000D000FF920F931F93CF93DF93FB012AE030E051
:1000E000B9010E9446018C01CB01B9010E94460171
:1000F0007C0190931D0180931C0110931B010093C0
:100100001A01CF0168EE73E00E944601CB01B901EC
:100110000E944601EC0190930F0180930E01CF01E4
:1001200064E670E00E944601CB01B9010E944601DD
:10013000909311018093100120E031E0820F931F12
:10014000FC01808182BB80910A0183B98FE097E234
:100150000197F1F700C00000C20FD31F888182BB56
:1001600080910B0183B9EFE0F7E23197F1F700C01E
:100170000000F901E00FF11F80818F7782BB809131
:100180000C0183B98FE097E20197F1F700C00000FE
:10019000E20EF31EF701808182BB80910D0183B9CD
:1001A0008FE097E20197F1F700C00000DF91CF9157
:1001B0001F910F91FF90EF900895CF93DF938FEFF2
:1001C00081BB8FE382B9C1E0D0E0609118017091EA
:1001D000190180911401909115010E9467000E99F8
:1001E00017C080911601909117018C279D2790933D
:1001F0001701809316010AC06091180170911901CE
:1002000080911401909115010E9467000E9BF4CF1C
:1002100080911601909117018130910529F5809107
:10022000180190911901019690931901809318017A
:1002300027E18037920769F4109219011092180192
:10024000809114019091150101969093150180936E
:10025000140180911401909115018C33910521F4C2
:1002600010921501109214010F99AFCF80911601D1
:1002700090911701009709F0A8CF109215011092E4
:10028000140110921901109218019FCF97FB092EAB
:1002900007260AD077FD04D00CD006D000201AF42F
:1002A000709561957F4F0895F6F7909581959F4FD2
:1002B0000895AA1BBB1B51E107C0AA1FBB1FA617AD
:1002C000B70710F0A61BB70B881F991F5A95A9F7FF
:0E02D00080959095BC01CD010895F894FFCF64
:0E02DE00C0F9A4B0999282F880900102040841
:00000001FF
